{
  "contractName": "Owned",
  "abi": [
    {
      "constant": true,
      "inputs": [],
      "name": "owner",
      "outputs": [
        {
          "name": "",
          "type": "address"
        }
      ],
      "payable": false,
      "stateMutability": "view",
      "type": "function"
    },
    {
      "inputs": [],
      "payable": false,
      "stateMutability": "nonpayable",
      "type": "constructor"
    },
    {
      "constant": false,
      "inputs": [
        {
          "name": "newOwner",
          "type": "address"
        }
      ],
      "name": "transferOwnership",
      "outputs": [],
      "payable": false,
      "stateMutability": "nonpayable",
      "type": "function"
    }
  ],
  "bytecode": "0x608060405234801561001057600080fd5b50336000806101000a81548173ffffffffffffffffffffffffffffffffffffffff021916908373ffffffffffffffffffffffffffffffffffffffff1602179055506101da806100606000396000f30060806040526004361061004c576000357c0100000000000000000000000000000000000000000000000000000000900463ffffffff1680638da5cb5b14610051578063f2fde38b146100a8575b600080fd5b34801561005d57600080fd5b506100666100eb565b604051808273ffffffffffffffffffffffffffffffffffffffff1673ffffffffffffffffffffffffffffffffffffffff16815260200191505060405180910390f35b3480156100b457600080fd5b506100e9600480360381019080803573ffffffffffffffffffffffffffffffffffffffff169060200190929190505050610110565b005b6000809054906101000a900473ffffffffffffffffffffffffffffffffffffffff1681565b6000809054906101000a900473ffffffffffffffffffffffffffffffffffffffff1673ffffffffffffffffffffffffffffffffffffffff163373ffffffffffffffffffffffffffffffffffffffff1614151561016b57600080fd5b806000806101000a81548173ffffffffffffffffffffffffffffffffffffffff021916908373ffffffffffffffffffffffffffffffffffffffff160217905550505600a165627a7a72305820df08c1b02d9c13996b50286f2b9bcd1b5f81fa60a303dc5aff9a1d332f1279e00029",
  "source": "pragma solidity ^0.4.20;\n\n//import \"../Owned.sol\";\ncontract Owned {\n    address public owner;\n\n    constructor () public {\n        owner = msg.sender;\n    }\n\n    modifier onlyOwner() {\n        require(msg.sender == owner);\n        _;\n      }\n\n    function transferOwnership(address newOwner) onlyOwner public {\n        owner = newOwner;\n    }\n}\n\ncontract MyToken is Owned {\n\n    string public tokenName;\n    string public tokenSymbol;\n    uint public initialSupply;\n    uint8 public decimal;\n    uint public totalSupply;\n\n    mapping (address => uint) public balanceOf;\n    mapping (address => bool) public frozenAccount;\n    mapping (address => mapping (address => uint)) public allowance;\n\n    event Transfer(address indexed from, address indexed to, uint value);\n    event FrozenFunds(address targetAccount, bool freeze);\n\n    constructor (string _tokenName, string _tokenSymbol, uint _initialSupply, uint8 _decimalValue) public {\n        balanceOf[msg.sender] = _initialSupply;\n        tokenName = _tokenName;\n        tokenSymbol = _tokenSymbol;\n        decimal = _decimalValue;\n        totalSupply = _initialSupply;\n    }\n\n    function _transferFunds(address _from, address _to, uint value) internal {\n        require(balanceOf[msg.sender] >= value);\n        require(balanceOf[_to] + value > balanceOf[_to]);\n        require(!frozenAccount[_from]);\n        require(!frozenAccount[_to]);\n        balanceOf[_from] -= value;\n        balanceOf[_to] += value;\n        emit Transfer(_from, _to, value);\n    }\n\n    function transfer(address _from, address _to, uint value) public returns (bool sucess) {\n        require(allowance[_from][msg.sender] >= value);\n        _transferFunds(_from, _to, value);\n        return true;\n    }\n\n    function mintTokens(address targetAddress, uint newTokens) onlyOwner public {\n        balanceOf[targetAddress] += newTokens;\n        totalSupply += newTokens;\n        emit Transfer(owner, targetAddress, newTokens);\n    }\n\n    function approve(address _spender, uint _value) public returns (bool success) {\n        allowance[msg.sender][_spender] = _value;\n        return true;\n    }\n\n    function freezeAccount(address targetAccount, bool freeze) onlyOwner public {\n        frozenAccount[targetAccount] = freeze;\n        emit FrozenFunds(targetAccount, freeze);\n    }\n}\n",
  "sourcePath": "/home/nineleaps/Desktop/smart2/contracts/MyToken.sol",
  "compiler": {
    "name": "solc",
    "version": "0.4.24+commit.e67f0147.Emscripten.clang"
  },
  "schemaVersion": "2.0.0",
  "updatedAt": "2018-06-07T04:57:34.407Z"
}